:100000000C9458000C9480000C9480000C94800098
:100010000C9480000C9480000C9480000C94800060
:100020000C9480000C9480000C9480000C94800050
:100030000C9480000C9480000C9480000C94800040
:100040000C9439090C9480000C94A9090C94830930
:100050000C9480000C9480000C9480000C94800020
:100060000C94DB090C94800000000000250028009F
:100070002B00040404040404040402020202020229
:10008000030303030303010204081020408001025C
:1000900004081020010204081020000000080002DB
:1000A0000100000304070000000000000000FA0A3D
:1000B00011241FBECFEFD8E0DEBFCDBF11E0A0E01E
:1000C000B1E0EEEFFDE102C005900D92AE3DB1074B
:1000D000D9F723E0AEEDB1E001C01D92AB35B20718
:1000E000E1F710E0C8E5D0E004C02197FE010E94CE
:1000F000D20DC735D107C9F70E943D0B0C94FD0EF8
:100100000C9400000895089590E0FC01E656FF4F1E
:100110002491FC01EA57FF4F3491FC01EE58FF4F48
:10012000E491EE23C9F0222339F0233001F1A8F441
:10013000213019F1223029F1F0E0EE0FFF1FE859CC
:10014000FF4FA591B4918FB7F894EC91611126C03F
:1001500030953E233C938FBF08952730A9F0283077
:10016000C9F0243049F7809180008F7D03C08091D1
:1001700080008F7780938000DFCF84B58F7784BD38
:10018000DBCF84B58F7DFBCF8091B0008F778093DC
:10019000B000D2CF8091B0008F7DF9CF3E2BDACF67
:1001A000FC0183858F3F19F061E00C948400089571
:1001B000FC0180819181892B39F0A281B3819C91CE
:1001C00011968C919CBD8DBD83858F3F19F060E0A9
:1001D0000C94840008958230910538F0880F991F9F
:1001E000880F991F05970197F1F70895AF92BF9275
:1001F000CF92DF92EF92FF920F931F93CF93DF93F3
:10020000EC0188819981892B89F06EBD0DB407FEC0
:10021000FDCFBEB48B2DDF91CF911F910F91FF9039
:10022000EF90DF90CF90BF90AF900895888599852B
:1002300011E0892B09F010E8AA24A394862F8123CA
:1002400009F0A12C062F2C813D814E815F8160E257
:1002500071EA87E090E00E94B00DF22EB02EE12C02
:10026000C22ED12CFF2019F0C6010E94EB008A8516
:10027000877F09F042C08D858F3F89F0902F9123B1
:1002800081E009F480E08A1551F0EF85F8898F89C3
:10029000992369F19081892B8083AA24A394E98909
:1002A000FA898081998D892B8083FF2019F0C601FE
:1002B0000E94EB008E858F3F39F0EB89FC898081AD
:1002C000988D892309F0E12AE989FA899081898D3D
:1002D0008095892380838E858F3F09F0BE2C888589
:1002E0009985892BB9F5110F1111BCCF93CF90814E
:1002F000809589238083A12CD2CFE989FA898081D6
:10030000998D892B8083FF2019F0C6010E94EB0094
:100310008D858F3F49F0EF85F8898F89902F912344
:10032000A9F09081892B8083E989FA899081898D50
:100330008095892380838E858F3F69F2EB89FC89C4
:100340008081988D892339F2E12AC5CF90818095EB
:100350008923E9CF1695C8CF8F929F92AF92BF9213
:10036000CF92DF92EF92FF920F931F93CF93DF9381
:100370007C014B016A01B22EA32E0E94D800E40139
:10038000C80CD91CCC15DD0569F4CB2DDA2D0C0F6A
:100390001D1FC017D10759F06FEFC7010E94F6006B
:1003A0008993F7CF6991C7010E94F600EBCFC7018F
:1003B0000E94D00081E0DF91CF911F910F91FF90BB
:1003C000EF90DF90CF90BF90AF909F908F90089567
:1003D0008F929F92AF92BF92CF92DF92EF92FF9255
:1003E0000F931F93CF93DF937C01B62EA72E6A0144
:1003F00049010E94D800E401080D191DC017D1075A
:1004000061F4CB2DDA2DCC0EDD1ECC15DD0551F0BF
:100410006991C7010E94F600F8CF6991C7010E9457
:10042000F600ECCFC7010E94D00081E0DF91CF91B0
:100430001F910F91FF90EF90DF90CF90BF90AF9002
:100440009F908F9008953FB7F894809130029091DB
:100450003102A0913202B091330226B5A89B05C0AB
:100460002F3F19F00196A11DB11D3FBFBA2FA92F33
:10047000982F8827BC01CD01620F711D811D911D30
:1004800042E0660F771F881F991F4A95D1F708959C
:100490008F929F92AF92BF92CF92DF92EF92FF9294
:1004A0004B015C010E9423026B017C010E9423022C
:1004B0006C197D098E099F09683E7340810591057D
:1004C000A8F321E0821A9108A108B10888EEC80EAD
:1004D00083E0D81EE11CF11C81149104A104B10435
:1004E00029F7FF90EF90DF90CF90BF90AF909F9053
:1004F0008F9008952FB7F89460912C0270912D027F
:1005000080912E0290912F022FBF0895AF92BF923B
:10051000CF92DF92EF92FF920F931F93CF93DF93CF
:100520006C017B018B01040F151FEB015E01AE18FE
:10053000BF08C017D10759F06991D601ED91FC9120
:100540000190F081E02DC6010995892B79F7C5014D
:10055000DF91CF911F910F91FF90EF90DF90CF909F
:10056000BF90AF900895FC01538D448D252F30E04E
:10057000842F90E0821B930B541710F0CF960895B0
:1005800001970895FC01918D828D981761F0A28DDD
:10059000AE0FBF2FB11D5D968C91928D9F5F9F73A3
:1005A000928F90E008958FEF9FEF0895FC01918D59
:1005B000828D981731F0828DE80FF11D858D90E0C6
:1005C00008958FEF9FEF0895FC01918D228D892F63
:1005D00090E0805C9F4F821B91098F73992708954B
:1005E0008AEA92E00E94E40221E0892B09F420E0EB
:1005F000822F089580E090E0892B29F00E94F0027C
:1006000081110C9400000895FC01A48DA80FB92F4E
:10061000B11DA35ABF4F2C91848D90E001968F732A
:100620009927848FA689B7892C93A089B1898C9149
:10063000837080648C93938D848D981306C0028898
:10064000F389E02D80818F7D80830895EF92FF9262
:100650000F931F93CF93DF93EC0181E0888F9B8DE5
:100660008C8D98131AC0E889F989808185FF15C09F
:100670009FB7F894EE89FF896083E889F9898081C2
:100680008370806480839FBF81E090E0DF91CF9191
:100690001F910F91FF90EF900895F62E0B8D10E0B3
:1006A0000F5F1F4F0F731127E02E8C8D8E110CC022
:1006B0000FB607FCFACFE889F989808185FFF5CF6D
:1006C000CE010E940403F1CFEB8DEC0FFD2FF11D45
:1006D000E35AFF4FF0829FB7F8940B8FEA89FB89AA
:1006E00080818062CFCFCF93DF93EC01888D882308
:1006F000B9F0AA89BB89E889F9898C9185FD03C085
:10070000808186FD0DC00FB607FCF7CF8C9185FF69
:10071000F2CF808185FFEDCFCE010E940403E9CFA7
:10072000DF91CF9108952091FF01260F3327331FCA
:1007300021323105ECF420918002FC0190E080E050
:10074000243069F082E00895A091FF012191AC016D
:1007500041525E4FA40FB52FB11D2C930196861701
:1007600098F38091FF01680F6093FF0180E0089586
:1007700081E008951092800281E080937F021092C0
:100780005A0261E082E10E94840061E083E10E94FC
:100790008400E9EBF0E080818E7F808380818D7F13
:1007A000808388E48093B80085E48093BC0008953A
:1007B000CF93DF9391E09093DE018823B9F0C0914D
:1007C000B800D091BA008091BC008A7B8093BC00B5
:1007D00060E082E10E94840060E083E10E94840086
:1007E0000E94BA03D093BA00C093B800DF91CF91B2
:1007F00008958F929F92AF92BF92CF92DF92EF9225
:10080000FF920F931F93CF93DF93D091A902D13220
:1008100008F0D7C0182FC091A8020E9423026B01D4
:100820007C018091800281116BC082E08093800204
:1008300010937F028FEF80937E0210927D02D093FF
:100840007C02A8E8B2E0ECE5F2E080E0D81391C0C9
:1008500010925B0280915B02CC0FC82BC0935B02AD
:1008600080915A02813009F088C010925A020E9489
:1008700023026B017C0180915B028093BB0080911D
:10088000820290918302A0918402B0918502892B0B
:100890008A2B8B2BA1F00E942302009182021091DF
:1008A000830220918402309185026C197D098E09A2
:1008B0009F09061717072807390708F442C08091D7
:1008C000BC0083FDD8CF85EC8093BC000E9423023E
:1008D0006B017C0180918002823009F450C08091CC
:1008E0007E028F3F09F46FC080917E02803209F44E
:1008F0006CC080917E02803309F469C084E026C018
:100900008091820290918302A0918402B09185022D
:10091000892B8A2B8B2B09F484CF0E942302809091
:10092000820290908302A0908402B09085026C199C
:100930007D098E099F0986169706A806B90608F054
:1009400070CF809181020E94D80385E010928702C7
:100950001092A90210928602DF91CF911F910F9100
:10096000FF90EF90DF90CF90BF90AF909F908F90CF
:1009700008959D9191938F5F69CF85EEA5CF80916A
:10098000820290918302A0918402B0918502892B0A
:100990008A2B8B2B09F49ECF0E94230200918202A6
:1009A0001091830220918402309185026C197D0997
:1009B0008E099F09061717072807390708F08ACFFD
:1009C000C0CF81E0C3CF80E0C1CF82E0BFCF83E062
:1009D000BDCF1F93CF93DF93EA01122FDC01119655
:1009E0008D919C91DC01ED91FC910280F381E02DD1
:1009F0000995C817D90729F4812F0E94F90391E0BE
:100A0000811190E0892FDF91CF911F910895AF92CE
:100A1000BF92CF92DF92EF92FF920F931F93CF93EB
:100A2000DF9300D0CDB7DEB7FC0120852530C0F5BF
:100A30004787508B618B728B90E080E0E22EF12C27
:100A40008E159F059CF42285211108C0DF01A80F97
:100A5000B91F1B964C93019640E0F2CFD701A81B1B
:100A6000B90BAE0FBF1F1A964C93F5CF6F018BE0F9
:100A7000C80ED11C9681878199838A83A080B1801A
:100A8000A114B10409F440C0018510E098012E0DB5
:100A90003F1DD50114968D919C918217930710F4F8
:100AA00080E016C0F50181819281208131E0309390
:100AB00086022093A802109287021092A9020115C3
:100AC000110599F421E0A701B601C5010E94E904CE
:100AD0000F900F90DF91CF911F910F91FF90EF90AA
:100AE000DF90CF90BF90AF900895DC01ED91FC9125
:100AF0000280F381E02DA801BE016F5F7F4F099551
:100B00000817190769F6DECFA281B381109741F269
:100B100024813581018510E02330310571F48E7F09
:100B200089839A830F5F1F4F9E012F5F3F4FA7015D
:100B3000B601CD010E94E801CBCF2115310519F492
:100B40009F779983F1CF2230310511F49068F9CF66
:100B50002130310549F79F779064F3CFCF93DF932E
:100B6000EC018B818823A1F0888191E0909386022B
:100B70008093A802109287021092A90281E00E943D
:100B8000F90391E0811190E0892FDF91CF910895D1
:100B90001092590210925802109287021092A902E4
:100BA0000E94BA0382E890E0909357028093560225
:100BB00083E890E0909355028093540281E08B8308
:100BC000CE010E94AE05982F8111CECFDDCF0895C2
:100BD000E091590280915802E81730F4F0E0EC5CA3
:100BE000FD4F808190E008958FEF9FEF08959091E1
:100BF0005902809158022FEF3FEF981748F4E92FE0
:100C0000F0E0EC5CFD4F208130E09F5F9093590253
:100C1000C90108958091580290915902891B990B3E
:100C20000895CF92DF92EF92FF920F931F93CF938D
:100C3000DF937C01CB018A0120918602222389F077
:100C4000EB016B01C40ED51ECC15DD0569F0699171
:100C5000D701ED91FC910190F081E02DC70109953C
:100C6000F3CF642F0E949303C801DF91CF911F91AE
:100C70000F91FF90EF90DF90CF900895CF93DF9387
:100C80001F92CDB7DEB76983209186022223F9F047
:100C90002091A902203258F021E030E0FC0133839A
:100CA000228390E080E00F90DF91CF9108958091B2
:100CB0008702E82FF0E0E857FD4F998190838F5F1E
:100CC000809387028093A90281E090E0ECCF61E0FD
:100CD000CE0101960E949303F7CF90E080E0089543
:100CE000FC0101900020E9F73197AF01481B590B37
:100CF000BC018AEA92E00C9486028F929F92AF9296
:100D0000BF920F931F93CF93DF93CDB7DEB7A19719
:100D10000FB6F894DEBF0FBECDBF19A2423008F463
:100D20004AE08E010F5D1F4F842E912CB12CA12C17
:100D3000A50194010E94B00DE62FB901CA01EA3065
:100D4000F4F4E05DD801EE938D01232B242B252BA9
:100D500079F790E080E0109719F0CD010E947006BD
:100D6000A1960FB6F894DEBF0FBECDBFDF91CF9135
:100D70001F910F91BF90AF909F908F900895E95C65
:100D8000E1CFCF93DF930E947006EC018EE291E0F9
:100D90000E9470068C0F9D1FDF91CF9108952F92B6
:100DA0003F924F925F926F927F928F929F92AF92FB
:100DB000BF92CF92DF92EF92FF920F931F93CF9348
:100DC000DF9300D000D01F92CDB7DEB77C01DC01ED
:100DD00018960C914C01BBE08B0E911CFC01968186
:100DE000878199838A83208031802114310409F41A
:100DF00024C1418550E0D10114968D919C911597A5
:100E00008417950708F46CC18C9191E09093860249
:100E10008093A802109287021092A90220E0BE01DE
:100E20006F5F7F4FC1010E94E904882309F458C114
:100E3000E02FF0E0FC83EB83B12CA12C01E08B814F
:100E40009C81A816B90608F018C1D10114968D919D
:100E50009C91CB80DC80CA18DB088C159D0508F4BA
:100E60006C01F101F081FD830E9423022B013C0102
:100E700080918002811172C01C2D113208F010E2A5
:100E80000093800221E08B819C818C199D09A8161A
:100E9000B90608F420E020937F028FEF80937E0252
:100EA00010927D02810F80937C0200935B029091EF
:100EB0005B028D81880F892B80935B0280915A029F
:100EC000813009F091C010925A020E9423022B0136
:100ED0003C0180915B028093BB00809182029091E3
:100EE0008302A0918402B0918502892B8A2B8B2BDF
:100EF000A1F00E942302209182023091830240914E
:100F0000840250918502641975098609970926178C
:100F100037074807590708F442C08091BC0083FD99
:100F2000D8CF95EC9093BC000E9423022B013C018A
:100F300080918002813009F45BC080917D0281172D
:100F400010F410917D02ECE5F2E0A4E3B2E080E061
:100F5000811751F191919D938F5FFACF8091820219
:100F600090918302A0918402B0918502892B8A2BF3
:100F70008B2B09F47DCF0E942302209182023091B5
:100F80008302409184025091850264197509860993
:100F90009709261737074807590708F069CF809146
:100FA00081020E94D80310E0109259021093580257
:100FB0001C151D0409F094C034016A0C7B1C23012C
:100FC000C201861997098C159D05A0F5F101818153
:100FD0009281DC01ED91FC910284F385E02D09956D
:100FE000F20181932F01ECCFA5EEA093BC009CCF22
:100FF0008091820290918302A0918402B091850237
:10100000892B8A2B8B2B09F493CF0E9423022091EA
:1010100082023091830240918402509185026419CA
:10102000750986099709261737074807590708F0F1
:101030007FCFB5CFAC0CBD1C02CFD7010280F381AE
:10104000E02D309709F44CC014962D913C911597E2
:1010500010E019964C9150E02330310561F5816024
:1010600089839A834F5F5F4F9401BE016F5F7F4F0B
:10107000CF010E94AC01882399F1F701408550E02F
:1010800030E020E060E070E0CB01241735075CF52C
:10109000982F872F762F6627D7011A96EC91E111AA
:1010A0001AC0FA01E21BF30BEE0DFF1DE2856E2B59
:1010B0002F5F3F4FEACF2115310519F490689983CE
:1010C000D3CF2230310511F49F77F9CF213031058C
:1010D00059F6906CF4CFF701E20FF31FE385E7CFE9
:1010E0006FEF7FEFCB010F900F900F900F900F904D
:1010F000DF91CF911F910F91FF90EF90DF90CF90F4
:10110000BF90AF909F908F907F906F905F904F9027
:101110003F902F900895BF92CF92DF92EF92FF926F
:101120000F931F93CF93DF93CDB7DEB7A6970FB67C
:10113000F894DEBF0FBECDBF182FB62E8091550399
:10114000909156031BA21CA21DA21EA29D8B8C8BEC
:101150001F8A1E8A81E08D8F2EE530E03B8F2A8F1B
:101160001E8E8C8FCE0144960E94CF066B017C01AF
:101170001E3509F444C08DE8810F883008F43FC063
:1011800040E050E0BA01CE0144960E94070501E01C
:101190008091550390915603188A198A1A8A1B8ADE
:1011A0009A8389831C821B8221E02A87812F90E009
:1011B00098878F831B8629874B2D50E070E060E075
:1011C000CE0101960E940705002349F0B701A60150
:1011D000552766277727CE0144960E940705A696D5
:1011E0000FB6F894DEBF0FBECDBFDF91CF911F9138
:1011F0000F91FF90EF90DF90CF90BF90089500E0A7
:10120000C7CF85ED8093BC008091820290918302CC
:10121000A0918402B09185020796A11DB11D23E023
:10122000B695A795979587952A95D1F72091BC00FB
:1012300024FD03C0109280020895409182025091D3
:1012400083026091840270918502452B462B472BC7
:1012500069F30097A105B10541F02AE22A95F1F75B
:1012600000C00197A109B109E1CF809181020C94DE
:10127000D8031F920F920FB60F9211242F933F9312
:101280008F939F93AF93BF9380912C0290912D02E7
:10129000A0912E02B0912F0230912B0223E0230F58
:1012A0002D3758F50196A11DB11D20932B02809377
:1012B0002C0290932D02A0932E02B0932F028091C6
:1012C000300290913102A0913202B0913302019626
:1012D000A11DB11D8093300290933102A093320280
:1012E000B0933302BF91AF919F918F913F912F9116
:1012F0000F900FBE0F901F90189526E8230F0296AF
:10130000A11DB11DD2CF1F920F920FB60F921124C3
:101310002F933F934F935F936F937F938F939F93FD
:10132000AF93BF93EF93FF938AEA92E00E94040386
:10133000FF91EF91BF91AF919F918F917F916F91AD
:101340005F914F913F912F910F900FBE0F901F9083
:1013500018951F920F920FB60F9211242F938F930F
:101360009F93EF93FF93E091BA02F091BB028081CB
:10137000E091C002F091C10282FD1BC0908180917A
:10138000C3028F5F8F732091C402821741F0E091F6
:10139000C302F0E0E655FD4F958F8093C302FF91A5
:1013A000EF919F918F912F910F900FBE0F901F90F3
:1013B00018958081F4CF1F920F920FB60F921124CF
:1013C0002F933F934F935F936F937F938F939F934D
:1013D000AF93BF93EF93FF938091B900887F8036DE
:1013E00009F44AC0F0F5883209F4A7C018F5803135
:1013F00009F49BC0B8F4882309F4F9C0883009F4D3
:1014000094C0FF91EF91BF91AF919F918F917F9188
:101410006F915F914F913F912F910F900FBE0F9061
:101420001F901895883109F488C0803251F7809355
:101430007E0214C0803409F49DC040F48033B9F3B7
:101440008833F9F680937E0285ECB0C0803509F4CC
:1014500085C0883509F496C0883499F60E94010940
:10146000D0CF883909F48CC038F5883729F050F48A
:10147000883611F0803729F683E08093800210923D
:10148000210257C0883809F47BC0803919F08038B0
:1014900009F0B7CF80912102803208F071C0E0914D
:1014A000210281E08E0F809321028091BB00F0E049
:1014B000EF5FFD4F80833DC0803B39F0E0F4803A20
:1014C00009F479C0883A09F09CCF84E080938002C7
:1014D000109200021092FF01E0915602F091570223
:1014E00009958091FF0181110FC081E08093FF0178
:1014F0001092DF0109C0803C09F4A6CF883C09F4B2
:10150000A3CF883B09F07DCFE091000281E08E0FF0
:1015100080930002F0E0E152FE4F80818093BB0097
:10152000909100028091FF0129C080915B0280931D
:10153000BB0085EC8093BC0064CF90917D028091CC
:101540007C02981758F5E0917D0281E08E0F809320
:101550007D02F0E0E45AFD4F8081E9CFE0917D0209
:1015600081E08E0F80937D028091BB00F0E0E45A11
:10157000FD4F808390917D0280917C029817C8F284
:1015800085E8D8CFE0917D0281E08E0F80937D02C7
:101590008091BB00F0E0E45AFD4F808380917F0290
:1015A00081115CCF81E080935A0284EA8093BC0071
:1015B0001092800226CF85EC8093BC0010928002AE
:1015C00080912102803230F4E0912102F0E0EF5F5F
:1015D000FD4F10826091210270E0E0915402F09181
:1015E000550281E092E00995109221020ACF1092F3
:1015F0007E0234CFEAEAF2E01382128288EE93E0B0
:10160000A0E0B0E084839583A683B7832EE031E029
:101610003183208325EC30E03587248724EC30E0CB
:101620003787268720EC30E0318B208B21EC30E0AF
:10163000338B228B22EC30E0358B248B26EC30E090
:10164000378B268B118E128E138E148EE7E4F3E007
:101650001382128284839583A683B78380E291E00C
:101660009183808310925603109255030E947A0250
:1016700070935403609353030895CF93DF93CDB7D2
:10168000DEB763970FB6F894DEBF0FBECDBF789478
:1016900084B5826084BD84B5816084BD85B5826077
:1016A00085BD85B5816085BD80916E008160809328
:1016B0006E00109281008091810082608093810091
:1016C00080918100816080938100809180008160A1
:1016D000809380008091B10084608093B1008091FC
:1016E000B00081608093B00080917A008460809324
:1016F0007A0080917A00826080937A0080917A00EB
:10170000816080937A0080917A00806880937A006B
:101710001092C100E091BA02F091BB0282E0808396
:10172000E091B602F091B7021082E091B802F09118
:10173000B9028FEC80831092C202E091BE02F09158
:10174000BF0286E08083E091BC02F091BD028081FF
:1017500080618083E091BC02F091BD02808188604D
:101760008083E091BC02F091BD028081806880831B
:10177000E091BC02F091BD0280818F7D808381E386
:1017800091E00E94C1068091550390915603009705
:1017900011F00E94740E86E090E00E94D80D8C013A
:1017A0008AE5F801808387E493E092838183138242
:1017B00080E290E095838483109356030093550351
:1017C0001092590210925802109287021092A902A8
:1017D0000E94BA0382E890E09093570280935602E9
:1017E00083E890E09093550280935402FF24F39491
:1017F000F801F382C8010E94AE05882309F436C1BE
:1018000063E680E80E948B0861E070E080E090E091
:101810000E94480260E08EE50E948B08809155038B
:1018200090915603188A198A1A8A1B8A9A83898387
:101830001C821B82FA868DE590E098878F831B8639
:10184000F986CE0101960E94CF06643209F00EC1DE
:1018500011E46CE0812F0E948B0866E081E0810F2B
:101860000E948B081E5F1935A1F761E08BE20E9490
:101870008B0861E08CE20E948B086EE08DE20E9492
:101880008B0860E08EE20E948B0861E08FE20E948C
:101890008B0865E080E30E948B0861E081E30E9491
:1018A0008B0860E082E30E948B0860E083E30E9483
:1018B0008B0860E084E30E948B0860E085E30E946F
:1018C0008B0860E08BE50E948B0860E18CE50E944C
:1018D0008B0860E28DE50E948B086CE88EE50E9423
:1018E0008B088EE591E00E94C1068824839482E0F3
:1018F000982EEE24E394F12C26E2C22E22E0D22E82
:1019000030E0A32E30E0B32E809155039091560322
:10191000188A198A1A8A1B8A9A8389831C821B82D5
:101920008A8618861F821B869986CE0101960E94A0
:10193000CF067F7070932A02609329026930794044
:1019400009F09FC080912702909128028930994028
:1019500009F497C08CE891E00E94C10610E000E015
:101960008091290290912A02909328028093270265
:101970008091550390915603188A198A1A8A1B8AF6
:101980009A8389831C821B828A8618861F821B8603
:101990009986CE0101960E94CF067F7070932A022D
:1019A00060932902409127025091280290E080E044
:1019B0009701082E02C0220F331F0A94E2F7F901A3
:1019C000E623F723EF2B09F456C024233523232BDA
:1019D00009F051C0F801E050FF4F8083682F70E09C
:1019E00090E080E04AE00E947D068EE291E00E9455
:1019F00070060F5F1F4F0430110509F0B1CF80EA68
:101A000091E00E94700600E011E0F80161918F0101
:101A100070E090E080E04AE00E947D0682EB91E079
:101A20000E947006F1E004301F0779F78EE291E022
:101A30000E947006109226020E947A02709354034C
:101A4000609353038091290290912A029093280277
:101A500080932702A114B10409F456CF0E94F0022A
:101A6000882309F451CF0E9400004ECF8CE691E00C
:101A70000E94C106FFCF01968C30910509F098CFE6
:101A8000BACF80912602843089F4E2E2F2E0A0E04D
:101A9000B1E091918D91981360C0CE16DF06C9F721
:101AA0008FEB91E00E947006109226020E947A024B
:101AB0002091530330915403621B730B68387341B8
:101AC000B0F080912602882391F00E947A027093F0
:101AD0005403609353031092260284EB91E00E941A
:101AE00070066AE070E080E090E00E944802409159
:101AF000290250912A02E0912702F091280290E0F9
:101B000080E0682F9701082E02C0220F331F0A942D
:101B1000E2F7D901A423B523AB2BD1F02E233F2329
:101B2000232BB1F4E0912602F0E0EE5DFD4F8083BF
:101B300070E090E080E04AE00E947D068EE291E055
:101B40000E947006809126028F5F8093260274CFD8
:101B500001968C309105A9F675CF86ED91E0A2CF64
:101B6000A1E21A2EAA1BBB1BFD010DC0AA1FBB1FA1
:101B7000EE1FFF1FA217B307E407F50720F0A21B13
:101B8000B30BE40BF50B661F771F881F991F1A9480
:101B900069F760957095809590959B01AC01BD01AA
:101BA000CF010895EE0FFF1F0590F491E02D0994E9
:101BB0000F931F93CF93DF938230910510F482E04F
:101BC00090E0E0915903F0915A0330E020E0B0E05A
:101BD000A0E0309799F42115310509F44AC0281B7B
:101BE000390B24303105D8F58A819B816115710547
:101BF00089F1FB0193838283FE0111C040815181F1
:101C00000281138148175907E0F04817590799F4E2
:101C1000109761F012960C93129713961C933296BC
:101C2000CF01DF91CF911F910F9108950093590338
:101C300010935A03F4CF2115310551F04217530781
:101C400038F0A901DB019A01BD01DF01F801C1CF24
:101C5000EF01F9CF90935A0380935903CDCFFE0142
:101C6000E20FF31F81939193225031093983288326
:101C7000D7CF2091570330915803232B41F4209163
:101C800006013091070130935803209357032091A8
:101C90000401309105012115310541F42DB73EB7FE
:101CA0004091080150910901241B350BE091570325
:101CB000F0915803E217F307A0F42E1B3F0B2817EF
:101CC000390778F0AC014E5F5F4F2417350748F0B5
:101CD0004E0F5F1F50935803409357038193919386
:101CE0009FCFF0E0E0E09CCFCF93DF930097E9F047
:101CF000FC01329713821282A0915903B0915A03CA
:101D0000ED0130E020E01097A1F420813181820FB5
:101D1000931F20915703309158032817390709F072
:101D200061C0F0935803E0935703DF91CF9108957A
:101D3000EA01CE17DF07E8F54A815B819E01411574
:101D40005105B1F7E901FB83EA8349915991C40F29
:101D5000D51FEC17FD0761F4808191810296840FF5
:101D6000951FE90199838883828193819B838A836C
:101D7000F0E0E0E012968D919C9113970097B9F5F1
:101D80002D913C911197CD010296820F931F2091C6
:101D90005703309158032817390739F6309751F512
:101DA00010925A0310925903B0935803A09357030B
:101DB000BCCFD383C28340815181840F951FC81744
:101DC000D90761F44E5F5F4F88819981480F591F91
:101DD000518340838A819B819383828321153105BE
:101DE00009F0B0CFF0935A03E09359039ECFFD0161
:0E1DF000DC01C0CF13821282D7CFF894FFCF50
:101DFE000302010000005B038000000000002603C8
:101E0E008602B3027303E402C202D602000000008F
:101E1E003E0611066D06E7050A06F705E8050D0AEA
:101E2E00004164616672756974204D5052313231D1
:101E3E00204361706163697469766520546F7563C0
:101E4E00682073656E736F722074657374004D50E5
:101E5E005231323120666F756E6421004D50523111
:101E6E003231206E6F7420666F756E642C2063683D
:101E7E0065636B20776972696E673F00696E69747E
:101E8E006C616C697A652070617373776F72640030
:101E9E006E65772070617373776F726420736574EB
:101EAE003A00200054696D65204F7574210A005761
:101EBE00656C6C20646F6E652C20796F752067756C
:0E1ECE00657373210A0057726F6E67210A0058
:00000001FF
