:100000000C945D000C9485000C9485000C94850084
:100010000C9485000C9485000C9485000C9485004C
:100020000C9485000C9485000C9485000C9485003C
:100030000C9485000C9485000C9485000C9485002C
:100040000C945D090C9485000C94CD090C94A709BF
:100050000C9485000C9485000C9485000C9485000C
:100060000C94FF090C9485000000000800020100B8
:100070000003040700000000000000000000000072
:10008000250028002B0000000000240027002A0083
:10009000040404040404040402020202020203032E
:1000A0000303030301020408102040800102040836
:1000B00010200102040810201E0B11241FBECFEFD8
:1000C000D8E0DEBFCDBF11E0A0E0B1E0E2EBFFE1A0
:1000D00002C005900D92AE3EB107D9F723E0AEEE17
:1000E000B1E001C01D92AB37B207E1F710E0CDE5FA
:1000F000D0E004C02197FE010E94AC0ECC35D107A0
:10010000C9F70E94610B0C94D70F0C94000090E08B
:10011000FC01EC55FF4F249180579F4FFC018491C7
:10012000882399F090E0880F991FFC01EA57FF4F50
:10013000A591B491FC01E458FF4F859194918FB73C
:10014000F894EC91E22BEC938FBF089508950895F5
:1001500090E0FC01E859FF4F2491FC01EC55FF4F62
:100160003491FC01E057FF4FE491EE23C9F02223C4
:1001700039F0233001F1A8F4213019F1223029F1AE
:10018000F0E0EE0FFF1FE458FF4FA591B4918FB739
:10019000F894EC91611126C030953E233C938FBFBB
:1001A00008952730A9F02830C9F0243049F780910C
:1001B00080008F7D03C0809180008F7780938000C6
:1001C000DFCF84B58F7784BDDBCF84B58F7DFBCF48
:1001D0008091B0008F778093B000D2CF8091B00033
:1001E0008F7DF9CF3E2BDACFFC0183858F3F19F04D
:1001F00061E00C94A8000895FC0180819181892B15
:1002000039F0A281B3819C9111968C919CBD8DBDDA
:1002100083858F3F19F060E00C94A8000895823028
:10022000910538F0880F991F880F991F059701973E
:10023000F1F70895AF92BF92CF92DF92EF92FF92C3
:100240000F931F93CF93DF93EC0188819981892BC2
:1002500089F06EBD0DB407FEFDCFBEB48B2DDF91CE
:10026000CF911F910F91FF90EF90DF90CF90BF90B3
:10027000AF9008958885998511E0892B09F010E8E1
:10028000AA24A394862F812309F0A12C062F2C8168
:100290003D814E815F8160E271EA87E090E00E94DB
:1002A0008A0EF22EB02EE12CC22ED12CFF2019F096
:1002B000C6010E940F018A85877F09F042C08D85A3
:1002C0008F3F89F0902F912381E009F480E08A1517
:1002D00051F0EF85F8898F89992369F19081892BF5
:1002E0008083AA24A394E989FA898081998D892B36
:1002F0008083FF2019F0C6010E940F018E858F3F79
:1003000039F0EB89FC898081988D892309F0E12AF5
:10031000E989FA899081898D8095892380838E85EA
:100320008F3F09F0BE2C88859985892BB9F5110F6F
:100330001111BCCF93CF9081809589238083A12C0C
:10034000D2CFE989FA898081998D892B8083FF201A
:1003500019F0C6010E940F018D858F3F49F0EF858E
:10036000F8898F89902F9123A9F09081892B808320
:10037000E989FA899081898D8095892380838E858A
:100380008F3F69F2EB89FC898081988D892339F24E
:10039000E12AC5CF908180958923E9CF1695C8CFF2
:1003A0008F929F92AF92BF92CF92DF92EF92FF9285
:1003B0000F931F93CF93DF937C014B016A01B22E01
:1003C000A32E0E94FC00E401C80CD91CCC15DD054D
:1003D00069F4CB2DDA2D0C0F1D1FC017D10759F072
:1003E0006FEFC7010E941A018993F7CF6991C70186
:1003F0000E941A01EBCFC7010E94F40081E0DF9157
:10040000CF911F910F91FF90EF90DF90CF90BF9011
:10041000AF909F908F9008958F929F92AF92BF92CE
:10042000CF92DF92EF92FF920F931F93CF93DF93C0
:100430007C01B62EA72E6A0149010E94FC00E4014E
:10044000080D191DC017D10761F4CB2DDA2DCC0E84
:10045000DD1ECC15DD0551F06991C7010E941A011E
:10046000F8CF6991C7010E941A01ECCFC7010E9421
:10047000F40081E0DF91CF911F910F91FF90EF90F9
:10048000DF90CF90BF90AF909F908F9008953FB72F
:10049000F8948091500290915102A0915202B09133
:1004A000530226B5A89B05C02F3F19F00196A11D48
:1004B000B11D3FBFBA2FA92F982F8827BC01CD01AE
:1004C000620F711D811D911D42E0660F771F881F0D
:1004D000991F4A95D1F708958F929F92AF92BF923C
:1004E000CF92DF92EF92FF924B015C010E94470294
:1004F0006B017C010E9447026C197D098E099F09DE
:10050000683E734081059105A8F321E0821A9108A5
:10051000A108B10888EEC80E83E0D81EE11CF11CCA
:1005200081149104A104B10429F7FF90EF90DF90AA
:10053000CF90BF90AF909F908F9008952FB7F89471
:1005400060914C0270914D0280914E0290914F0249
:100550002FBF0895AF92BF92CF92DF92EF92FF929A
:100560000F931F93CF93DF936C017B018B01040FDB
:10057000151FEB015E01AE18BF08C017D10759F077
:100580006991D601ED91FC910190F081E02DC601B9
:100590000995892B79F7C501DF91CF911F910F91B3
:1005A000FF90EF90DF90CF90BF90AF900895FC0147
:1005B000538D448D252F30E0842F90E0821B930BC8
:1005C000541710F0CF96089501970895FC01918D6E
:1005D000828D981761F0A28DAE0FBF2FB11D5D9671
:1005E0008C91928D9F5F9F73928F90E008958FEF13
:1005F0009FEF0895FC01918D828D981731F0828DC7
:10060000E80FF11D858D90E008958FEF9FEF08951D
:10061000FC01918D228D892F90E0805C9F4F821B81
:1006200091098F73992708958AEC92E00E9408033C
:1006300021E0892B09F420E0822F089580E090E0EA
:10064000892B29F00E94140381110C940000089555
:10065000FC01A48DA80FB92FB11DA35ABF4F2C9137
:10066000848D90E001968F739927848FA689B7892E
:100670002C93A089B1898C91837080648C93938D25
:10068000848D981306C00288F389E02D80818F7DC8
:1006900080830895EF92FF920F931F93CF93DF9380
:1006A000EC0181E0888F9B8D8C8D98131AC0E889AE
:1006B000F989808185FF15C09FB7F894EE89FF897D
:1006C0006083E889F98980818370806480839FBF1B
:1006D00081E090E0DF91CF911F910F91FF90EF901B
:1006E0000895F62E0B8D10E00F5F1F4F0F7311272B
:1006F000E02E8C8D8E110CC00FB607FCFACFE88966
:10070000F989808185FFF5CFCE010E942803F1CFC2
:10071000EB8DEC0FFD2FF11DE35AFF4FF0829FB7D9
:10072000F8940B8FEA89FB8980818062CFCFCF93C9
:10073000DF93EC01888D8823B9F0AA89BB89E88909
:10074000F9898C9185FD03C0808186FD0DC00FB6AF
:1007500007FCF7CF8C9185FFF2CF808185FFEDCF2D
:10076000CE010E942803E9CFDF91CF910895209117
:100770000F02260F3327331F21323105ECF420916D
:10078000A002FC0190E080E0243069F082E008954E
:10079000A0910F022191AC0141515E4FA40FB52FE2
:1007A000B11D2C930196861798F380910F02680F64
:1007B00060930F0280E0089581E008951092A002F6
:1007C00081E080939F0210927A0261E082E10E94B0
:1007D000A80061E083E10E94A800E9EBF0E08081DD
:1007E0008E7F808380818D7F808388E48093B800B2
:1007F00085E48093BC000895CF93DF9391E09093BC
:10080000EE018823B9F0C091B800D091BA00809170
:10081000BC008A7B8093BC0060E082E10E94A8005B
:1008200060E083E10E94A8000E94DE03D093BA003A
:10083000C093B800DF91CF9108958F929F92AF92AD
:10084000BF92CF92DF92EF92FF920F931F93CF93BD
:10085000DF93D091C902D13208F0D7C0182FC091D0
:10086000C8020E9447026B017C018091A0028111A5
:100870006BC082E08093A00210939F028FEF809361
:100880009E0210929D02D0939C02A8EAB2E0ECE78F
:10089000F2E080E0D81391C010927B0280917B023D
:1008A000CC0FC82BC0937B0280917A02813009F073
:1008B00088C010927A020E9447026B017C018091ED
:1008C0007B028093BB008091A2029091A302A09131
:1008D000A402B091A502892B8A2B8B2BA1F00E9438
:1008E00047020091A2021091A3022091A40230912C
:1008F000A5026C197D098E099F090617170728079D
:10090000390708F442C08091BC0083FDD8CF85EC44
:100910008093BC000E9447026B017C018091A00281
:10092000823009F450C080919E028F3F09F46FC05D
:1009300080919E02803209F46CC080919E028033C7
:1009400009F469C084E026C08091A2029091A302BC
:10095000A091A402B091A502892B8A2B8B2B09F4BC
:1009600084CF0E9447028090A2029090A302A090A0
:10097000A402B090A5026C197D098E099F09861604
:100980009706A806B90608F070CF8091A1020E94D0
:10099000FC0385E01092A7021092C9021092A602F1
:1009A000DF91CF911F910F91FF90EF90DF90CF904B
:1009B000BF90AF909F908F9008959D9191938F5F7E
:1009C00069CF85EEA5CF8091A2029091A302A0915C
:1009D000A402B091A502892B8A2B8B2B09F49ECF00
:1009E0000E9447020091A2021091A3022091A4024A
:1009F0003091A5026C197D098E099F09061717070A
:100A00002807390708F08ACFC0CF81E0C3CF80E044
:100A1000C1CF82E0BFCF83E0BDCF1F93CF93DF93E1
:100A2000EA01122FDC0111968D919C91DC01ED9170
:100A3000FC910280F381E02D0995C817D90729F4AC
:100A4000812F0E941D0491E0811190E0892FDF9198
:100A5000CF911F910895AF92BF92CF92DF92EF9204
:100A6000FF920F931F93CF93DF9300D0CDB7DEB7E4
:100A7000FC0120852530C0F54787508B618B728B38
:100A800090E080E0E22EF12C8E159F059CF42285EB
:100A9000211108C0DF01A80FB91F1B964C930196C6
:100AA00040E0F2CFD701A81BB90BAE0FBF1F1A96BB
:100AB0004C93F5CF6F018BE0C80ED11C96818781D6
:100AC00099838A83A080B180A114B10409F440C045
:100AD000018510E098012E0D3F1DD50114968D91D2
:100AE0009C918217930710F480E016C0F501818174
:100AF0009281208131E03093A6022093C8021092A7
:100B0000A7021092C9020115110599F421E0A7016D
:100B1000B601C5010E940D050F900F90DF91CF9196
:100B20001F910F91FF90EF90DF90CF90BF90AF900B
:100B30000895DC01ED91FC910280F381E02DA80184
:100B4000BE016F5F7F4F09950817190769F6DECF61
:100B5000A281B381109741F224813581018510E093
:100B60002330310571F48E7F89839A830F5F1F4F85
:100B70009E012F5F3F4FA701B601CD010E940C02DD
:100B8000CBCF2115310519F49F779983F1CF22300E
:100B9000310511F49068F9CF2130310549F79F777D
:100BA0009064F3CFCF93DF93EC018B818823A1F086
:100BB000888191E09093A6028093C8021092A702C8
:100BC0001092C90281E00E941D0491E0811190E021
:100BD000892FDF91CF9108951092790210927802B7
:100BE0001092A7021092C9020E94DE0386EA90E0EA
:100BF000909377028093760287EA90E09093750253
:100C00008093740281E08B83CE010E94D205982FDD
:100C10008111CECFDDCF0895E091790280917802E5
:100C2000E81730F4F0E0EC5AFD4F808190E0089531
:100C30008FEF9FEF089590917902809178022FEFC6
:100C40003FEF981748F4E92FF0E0EC5AFD4F208170
:100C500030E09F5F90937902C901089580917802F6
:100C600090917902891B990B0895CF92DF92EF92B0
:100C7000FF920F931F93CF93DF937C01CB018A01E7
:100C80002091A602222389F0EB016B01C40ED51E30
:100C9000CC15DD0569F06991D701ED91FC910190CA
:100CA000F081E02DC7010995F3CF642F0E94B703AF
:100CB000C801DF91CF911F910F91FF90EF90DF90CE
:100CC000CF900895CF93DF931F92CDB7DEB769839E
:100CD0002091A6022223F9F02091C902203258F077
:100CE00021E030E0FC013383228390E080E00F902C
:100CF000DF91CF9108958091A702E82FF0E0E855A9
:100D0000FD4F998190838F5F8093A7028093C902E2
:100D100081E090E0ECCF61E0CE0101960E94B70344
:100D2000F7CF90E080E00895FC0101900020E9F702
:100D30003197AF01481B590BBC018AEC92E00C942F
:100D4000AA028F929F92AF92BF920F931F93CF935D
:100D5000DF93CDB7DEB7A1970FB6F894DEBF0FBE15
:100D6000CDBF19A2423008F44AE08E010F5D1F4F3B
:100D7000842E912CB12CA12CA50194010E948A0EE5
:100D8000E62FB901CA01EA30F4F4E05DD801EE9330
:100D90008D01232B242B252B79F790E080E01097F1
:100DA00019F0CD010E949406A1960FB6F894DEBF0B
:100DB0000FBECDBFDF91CF911F910F91BF90AF902C
:100DC0009F908F900895E95CE1CFCF93DF930E94CD
:100DD0009406EC018AE391E00E9494068C0F9D1F1B
:100DE000DF91CF9108952F923F924F925F926F9231
:100DF0007F928F929F92AF92BF92CF92DF92EF92AB
:100E0000FF920F931F93CF93DF9300D000D01F92D8
:100E1000CDB7DEB77C01DC0118960C914C01BBE02C
:100E20008B0E911CFC019681878199838A83208097
:100E300031802114310409F424C1418550E0D101ED
:100E400014968D919C9115978417950708F46CC1A1
:100E50008C9191E09093A6028093C8021092A70211
:100E60001092C90220E0BE016F5F7F4FC1010E9456
:100E70000D05882309F458C1E02FF0E0FC83EB83D3
:100E8000B12CA12C01E08B819C81A816B90608F039
:100E900018C1D10114968D919C91CB80DC80CA1829
:100EA000DB088C159D0508F46C01F101F081FD83D0
:100EB0000E9447022B013C018091A002811172C067
:100EC0001C2D113208F010E20093A00221E08B816A
:100ED0009C818C199D09A816B90608F420E020937E
:100EE0009F028FEF80939E0210929D02810F80934C
:100EF0009C0200937B0290917B028D81880F892B4D
:100F000080937B0280917A02813009F091C0109227
:100F10007A020E9447022B013C0180917B02809360
:100F2000BB008091A2029091A302A091A402B09173
:100F3000A502892B8A2B8B2BA1F00E9447022091BE
:100F4000A2023091A3024091A4025091A50264191B
:100F5000750986099709261737074807590708F4BE
:100F600042C08091BC0083FDD8CF95EC9093BC002B
:100F70000E9447022B013C018091A002813009F4BC
:100F80005BC080919D02811710F410919D02ECE7E7
:100F9000F2E0A4E5B2E080E0811751F191919D93D8
:100FA0008F5FFACF8091A2029091A302A091A40238
:100FB000B091A502892B8A2B8B2B09F47DCF0E943F
:100FC00047022091A2023091A3024091A4025091C5
:100FD000A502641975098609970926173707480776
:100FE000590708F069CF8091A1020E94FC0310E02C
:100FF00010927902109378021C151D0409F094C018
:1010000034016A0C7B1C2301C201861997098C15D7
:101010009D05A0F5F10181819281DC01ED91FC91AA
:101020000284F385E02D0995F20181932F01ECCF25
:10103000A5EEA093BC009CCF8091A2029091A30248
:10104000A091A402B091A502892B8A2B8B2B09F4C5
:1010500093CF0E9447022091A2023091A3024091B7
:10106000A4025091A50264197509860997092617EB
:1010700037074807590708F07FCFB5CFAC0CBD1C28
:1010800002CFD7010280F381E02D309709F44CC0E4
:1010900014962D913C91159710E019964C9150E0C3
:1010A0002330310561F5816089839A834F5F5F4FFB
:1010B0009401BE016F5F7F4FCF010E94D001882352
:1010C00099F1F701408550E030E020E060E070E009
:1010D000CB01241735075CF5982F872F762F6627CD
:1010E000D7011A96EC91E1111AC0FA01E21BF30B39
:1010F000EE0DFF1DE2856E2B2F5F3F4FEACF2115CE
:10110000310519F490689983D3CF2230310511F459
:101110009F77F9CF2130310559F6906CF4CFF70164
:10112000E20FF31FE385E7CF6FEF7FEFCB010F9067
:101130000F900F900F900F90DF91CF911F910F9113
:10114000FF90EF90DF90CF90BF90AF909F908F90E7
:101150007F906F905F904F903F902F900895BF9237
:10116000CF92DF92EF92FF920F931F93CF93DF9373
:10117000CDB7DEB7A6970FB6F894DEBF0FBECDBFD2
:10118000182FB62E80917503909176031BA21CA296
:101190001DA21EA29D8B8C8B1F8A1E8A81E08D8FC3
:1011A0002EE530E03B8F2A8F1E8E8C8FCE01449629
:1011B0000E94F3066B017C011E3509F444C08DE8E2
:1011C000810F883008F43FC040E050E0BA01CE0102
:1011D00044960E942B0501E080917503909176035F
:1011E000188A198A1A8A1B8A9A8389831C821B820D
:1011F00021E02A87812F90E098878F831B8629879B
:101200004B2D50E070E060E0CE0101960E942B056E
:10121000002349F0B701A601552766277727CE019D
:1012200044960E942B05A6960FB6F894DEBF0FBE1B
:10123000CDBFDF91CF911F910F91FF90EF90DF9085
:10124000CF90BF90089500E0C7CF85ED8093BC009C
:101250008091A2029091A302A091A402B091A50254
:101260000796A11DB11D23E0B695A7959795879583
:101270002A95D1F72091BC0024FD03C01092A00252
:1012800008954091A2025091A3026091A40270912E
:10129000A502452B462B472B69F30097A105B10505
:1012A00041F02AE22A95F1F700C00197A109B1099E
:1012B000E1CF8091A1020C94FC031F920F920FB614
:1012C0000F9211242F933F938F939F93AF93BF93CC
:1012D00080914C0290914D02A0914E02B0914F022C
:1012E00030914B0223E0230F2D3758F50196A11DB5
:1012F000B11D20934B0280934C0290934D02A0931A
:101300004E02B0934F028091500290915102A091F1
:101310005202B09153020196A11DB11D809350025B
:1013200090935102A0935202B0935302BF91AF9198
:101330009F918F913F912F910F900FBE0F901F9013
:10134000189526E8230F0296A11DB11DD2CF1F923A
:101350000F920FB60F9211242F933F934F935F93E9
:101360006F937F938F939F93AF93BF93EF93FF936D
:101370008AEC92E00E942803FF91EF91BF91AF9118
:101380009F918F917F916F915F914F913F912F919D
:101390000F900FBE0F901F9018951F920F920FB6CF
:1013A0000F9211242F938F939F93EF93FF93E091CC
:1013B000DA02F091DB028081E091E002F091E1023B
:1013C00082FD1BC090818091E3028F5F8F7320911B
:1013D000E402821741F0E091E302F0E0E653FD4FB2
:1013E000958F8093E302FF91EF919F918F912F91C1
:1013F0000F900FBE0F901F9018958081F4CF1F9211
:101400000F920FB60F9211242F933F934F935F9338
:101410006F937F938F939F93AF93BF93EF93FF93BC
:101420008091B900887F803609F44AC0F0F588328F
:1014300009F4A7C018F5803109F49BC0B8F48823DB
:1014400009F4F9C0883009F494C0FF91EF91BF917D
:10145000AF919F918F917F916F915F914F913F914C
:101460002F910F900FBE0F901F901895883109F49F
:1014700088C0803251F780939E0214C0803409F4F2
:101480009DC040F48033B9F38833F9F680939E020F
:1014900085ECB0C0803509F485C0883509F496C064
:1014A000883499F60E942509D0CF883909F48CC078
:1014B00038F5883729F050F4883611F0803729F64E
:1014C00083E08093A0021092310257C0883809F45B
:1014D0007BC0803919F0803809F0B7CF8091310294
:1014E000803208F071C0E091310281E08E0F80936C
:1014F00031028091BB00F0E0EF5EFD4F80833DC084
:10150000803B39F0E0F4803A09F479C0883A09F078
:101510009CCF84E08093A0021092100210920F02E0
:10152000E0917602F0917702099580910F02811186
:101530000FC081E080930F021092EF0109C0803C40
:1015400009F4A6CF883C09F4A3CF883B09F07DCFEE
:10155000E091100281E08E0F80931002F0E0E151E3
:10156000FE4F80818093BB009091100280910F020A
:1015700029C080917B028093BB0085EC8093BC00E6
:1015800064CF90919D0280919C02981758F5E0914C
:101590009D0281E08E0F80939D02F0E0E458FD4FA4
:1015A0008081E9CFE0919D0281E08E0F80939D02C2
:1015B0008091BB00F0E0E458FD4F808390919D0244
:1015C00080919C029817C8F285E8D8CFE0919D02DF
:1015D00081E08E0F80939D028091BB00F0E0E45883
:1015E000FD4F808380919F0281115CCF81E08093C9
:1015F0007A0284EA8093BC001092A00226CF85EC88
:101600008093BC001092A00280913102803230F4AD
:10161000E0913102F0E0EF5EFD4F10826091310207
:1016200070E0E0917402F091750281E192E0099519
:10163000109231020ACF10929E0234CFEAECF2E00F
:101640001382128288EE93E0A0E0B0E08483958359
:10165000A683B7832AE131E03183208325EC30E093
:101660003587248724EC30E03787268720EC30E06C
:10167000318B208B21EC30E0338B228B22EC30E05D
:10168000358B248B26EC30E0378B268B118E128E17
:10169000138E148EE7E6F3E013821282848395831F
:1016A000A683B7838CE291E09183808310927603C6
:1016B000109275030E949E027093740360937303EB
:1016C0000895CF93DF93CDB7DEB763970FB6F89445
:1016D000DEBF0FBECDBF789484B5826084BD84B573
:1016E000816084BD85B5826085BD85B5816085BD1D
:1016F00080916E00816080936E00109281008091D5
:10170000810082608093810080918100816080935C
:101710008100809180008160809380008091B10081
:1017200084608093B1008091B00081608093B000AC
:1017300080917A00846080937A0080917A00826040
:1017400080937A0080917A00816080937A00809102
:101750007A00806880937A001092C100E091DA02EA
:10176000F091DB0282E08083E091D602F091D70213
:101770001082E091D802F091D90280E1808310922A
:10178000E202E091DE02F091DF0286E08083E091E8
:10179000DC02F091DD02808180618083E091DC02D7
:1017A000F091DD02808188608083E091DC02F0911D
:1017B000DD02808180688083E091DC02F091DD02AF
:1017C00080818F7D80838DE00E9487008CE00E9465
:1017D000870060E08DE00E94A80060E08CE00E943D
:1017E000A8008DE391E00E94E50680917503909139
:1017F0007603009711F00E944E0F86E090E00E9461
:10180000B20E8C018AE5F801808387E693E092832B
:101810008183138280E290E0958384831093760322
:101820000093750310927902109278021092A70229
:101830001092C9020E94DE0386EA90E0909377023C
:101840008093760287EA90E0909375028093740209
:10185000FF24F394F801F382C8010E94D205882383
:1018600009F4E0C063E680E80E94AF0861E070E040
:1018700080E090E00E946C0260E08EE50E94AF087C
:101880008091750390917603188A198A1A8A1B8AA7
:101890009A8389831C821B82FA868DE590E0988763
:1018A0008F831B86F986CE0101960E94F30664326F
:1018B00009F0B8C011E46CE0812F0E94AF0866E027
:1018C00081E0810F0E94AF081E5F1935A1F761E02A
:1018D0008BE20E94AF0861E08CE20E94AF086EE0EC
:1018E0008DE20E94AF0860E08EE20E94AF0861E0E6
:1018F0008FE20E94AF0865E080E30E94AF0861E0DC
:1019000081E30E94AF0860E082E30E94AF0860E0DC
:1019100083E30E94AF0860E084E30E94AF0860E0C8
:1019200085E30E94AF0860E08BE50E94AF0860E1AC
:101930008CE50E94AF0860E28DE50E94AF086CE87C
:101940008EE50E94AF088824839482E0982EEE24CE
:10195000E394F12C24E0C22E21E0D22E30E0A32E1D
:1019600030E0B32E8091750390917603188A198A1E
:101970001A8A1B8A9A8389831C821B828A8618860C
:101980001F821B869986CE0101960E94F3067F7006
:1019900070934A02609349028091470290914802F5
:1019A0008617970709F4F7C06115F1E07F0709F47E
:1019B0007EC169307607D9F16130710509F0EBC05D
:1019C00080EC91E00E94E50660E08DE00E94A800B6
:1019D00060E08CE00E94A80068EC70E080E090E09D
:1019E0000E946C0261E08CE00E94A80068EC70E04C
:1019F00080E090E00E946C0260E08CE00E94A80011
:101A000068EC70E080E090E00E946C0261E08CE0A5
:101A10000E94A80068EC70E080E090E00E946C02F8
:101A200060E06EC18AE691E00E94E506FFCF8AE899
:101A300091E00E94E50660E08CE00E94A80068EC5E
:101A400070E080E090E00E946C0261E08CE00E9417
:101A5000A80068EC70E080E090E00E946C0260E01A
:101A60008CE00E94A80068EC70E080E090E00E94AA
:101A70006C0261E08CE00E94A80068EC70E080E0FD
:101A800090E00E946C0260E08CE00E94A80010E0F0
:101A900000E08091490290914A029093480280931D
:101AA00047028091750390917603188A198A1A8AE1
:101AB0001B8A9A8389831C821B828A8618861F82CE
:101AC0001B869986CE0101960E94F3067F70709363
:101AD0004A0260934902409147025091480290E0C7
:101AE00080E09701082E02C0220F331F0A94E2F70C
:101AF000F901E623F723EF2B09F4D3C02423352380
:101B0000232B09F0CEC0865F9E4FFC016081F80157
:101B1000E050FF4F608370E090E080E04AE00E9478
:101B2000A1068AE391E00E9494060F5F1F4F0430E4
:101B3000110509F0AECF8EE991E00E94940600E015
:101B400011E0F80161918F0170E090E080E04AE0DF
:101B50000E94A10680EB91E00E949406C016D10677
:101B600081F78AE391E00E94940661E08DE00E9493
:101B7000A80068EC70E080E090E00E946C0260E0F9
:101B80008DE00E94A8000E949E02709374036093EF
:101B90007303109246020E949E02209173033091BB
:101BA0007403621B730B68387341B0F08091460276
:101BB000882391F00E949E027093740360937303D4
:101BC000109246028DEC91E00E9494066AE070E06B
:101BD00080E090E00E946C024091490250914A02DC
:101BE000609147027091480290E080E09701082ED2
:101BF00002C0220F331F0A94E2F7F901E423F52310
:101C0000EF2B09F481C026233723232B09F07CC056
:101C1000865F9E4FFC016081E0914602F0E0EE5C41
:101C2000FD4F608370E090E080E04AE00E94A106F2
:101C30008AE391E00E949406809146028F5F809330
:101C400046020E949E02709374036093730360E0E7
:101C50008CE00E94A80060E08DE00E94A8008091C6
:101C60004602843151F461E08CE00E94A80088EDC6
:101C700091E00E9494061092460280914902909150
:101C80004A029093480280934702A114B10409F4D8
:101C900069CE0E941403882309F464CE0E940000D8
:101CA00061CE01968C30910509F01BCF40CF82EBBD
:101CB00091E00E94E506E2E3F2E0A0E0B1E091915C
:101CC0008D9198131CC082E0E633F807C1F780912C
:101CD00046028150843098F461E08DE00E94A800B3
:101CE00084EB91E00E949406109246028091490292
:101CF00090914A0290934802809347024CCF61E052
:101D00008CE00E94A800F0CF01968C30910509F07C
:101D10006DCFA5CFA1E21A2EAA1BBB1BFD010DC0E2
:101D2000AA1FBB1FEE1FFF1FA217B307E407F5078B
:101D300020F0A21BB30BE40BF50B661F771F881F67
:101D4000991F1A9469F760957095809590959B01FD
:101D5000AC01BD01CF010895EE0FFF1F0590F49176
:101D6000E02D09940F931F93CF93DF938230910559
:101D700010F482E090E0E0917903F0917A0330E092
:101D800020E0B0E0A0E0309799F42115310509F486
:101D90004AC0281B390B24303105D8F58A819B8134
:101DA0006115710589F1FB0193838283FE0111C0E6
:101DB000408151810281138148175907E0F048178B
:101DC000590799F4109761F012960C931297139695
:101DD0001C933296CF01DF91CF911F910F910895FF
:101DE0000093790310937A03F4CF2115310551F054
:101DF0004217530738F0A901DB019A01BD01DF0149
:101E0000F801C1CFEF01F9CF90937A038093790362
:101E1000CDCFFE01E20FF31F819391932250310940
:101E200039832883D7CF2091770330917803232BF0
:101E300041F42091060130910701309378032093FB
:101E4000770320910401309105012115310541F4FA
:101E50002DB73EB74091080150910901241B350B65
:101E6000E0917703F0917803E217F307A0F42E1BBB
:101E70003F0B2817390778F0AC014E5F5F4F2417EE
:101E8000350748F04E0F5F1F509378034093770358
:101E9000819391939FCFF0E0E0E09CCFCF93DF93CD
:101EA0000097E9F0FC01329713821282A091790326
:101EB000B0917A03ED0130E020E01097A1F4208189
:101EC0003181820F931F2091770330917803281777
:101ED000390709F061C0F0937803E0937703DF914D
:101EE000CF910895EA01CE17DF07E8F54A815B81BB
:101EF0009E0141155105B1F7E901FB83EA83499140
:101F00005991C40FD51FEC17FD0761F480819181B1
:101F10000296840F951FE9019983888382819381BA
:101F20009B838A83F0E0E0E012968D919C91139759
:101F30000097B9F52D913C911197CD010296820F32
:101F4000931F20917703309178032817390739F6CA
:101F5000309751F510927A0310927903B093780379
:101F6000A0937703BCCFD383C28340815181840F78
:101F7000951FC817D90761F44E5F5F4F888199811B
:101F8000480F591F518340838A819B8193838283A9
:101F90002115310509F0B0CFF0937A03E09379036E
:101FA0009ECFFD01DC01C0CF13821282D7CFF894FF
:021FB000FFCF61
:101FB2000709050800007B038000FF0704010008F1
:101FC2000502FF090603000000004A03AA02D70225
:101FD20097030803E602FA020000000062063506D3
:101FE20091060B062E061B060C060D0A00416461C3
:101FF2006672756974204D505231323120436170DE
:102002006163697469766520546F756368207365CE
:102012006E736F722074657374004D505231323199
:10202200206E6F7420666F756E642C206368656322
:102032006B20776972696E673F00696E69746961C6
:102042006C697A652070617373776F7264006E6574
:10205200772070617373776F7264207365743A00CE
:102062002000650057656C6C20646F6E65210A0064
:10207200726573657420627574746F6E0054696D55
:1020820065204F7574210A00546F6F206D75636867
:0E2092002063686172616374657273210A00D5
:00000001FF
