:100000000C9462000C948A000C948A000C948A0070
:100010000C948A000C948A000C948A000C948A0038
:100020000C948A000C948A000C948A000C948A0028
:100030000C948A000C948A000C948A000C948A0018
:100040000C944F030C948A000C94BF030C949903F6
:100050000C948A000C948A000C948A000C948A00F8
:100060000C948A000C948A000000000024002700F1
:100070002A0000000000250028002B0000000000DE
:1000800023002600290004040404040404040202DA
:100090000202020203030303030301020408102007
:1000A0004080010204081020010204081020000012
:1000B0000008000201000003040700000000000027
:1000C0000000F10311241FBECFEFD8E0DEBFCDBF8B
:1000D00011E0A0E0B1E0E8E3FEE002C005900D927F
:1000E000AC37B107D9F722E0ACE7B1E001C01D920F
:1000F000A83AB207E1F710E0C2E6D0E004C02197C9
:10010000FE010E941407C136D107C9F70E94850479
:100110000C941A070C94000096E0899FD0011124DA
:10012000A75CBD4F90967C936E935F9791E09196FC
:100130009C939197E091A602F091A7029091A5025D
:10014000992339F0309751F0811108C08091550200
:100150000994309719F05C968C91FACF089583300A
:1001600081F028F4813099F08230A9F00895873029
:10017000A9F08830C9F08430B1F4809180008F7D7F
:1001800003C0809180008F7780938000089584B5AC
:100190008F7784BD089584B58F7DFBCF8091B000AB
:1001A0008F778093B00008958091B0008F7DF9CF54
:1001B000CF93DF93282F30E0F901E255FF4F849170
:1001C000F901E656FF4FD491F901EA57FF4FC49168
:1001D000CC23A1F081110E94AF00EC2FF0E0EE0FD4
:1001E000FF1FE458FF4FA591B491EC91ED2381E0FE
:1001F00090E009F480E0DF91CF91089580E090E0F5
:10020000FACF1F93CF93DF93282F30E0F901E25507
:10021000FF4F8491F901E656FF4FD491F901EA5757
:10022000FF4FC491CC23A9F0162F81110E94AF007B
:10023000EC2FF0E0EE0FFF1FEE58FF4FA591B491A9
:100240008FB7F894EC91111108C0D095DE23DC93A0
:100250008FBFDF91CF911F910895DE2BF8CFCF9301
:10026000DF9390E0FC01E656FF4F24918A579F4FA1
:10027000FC0184918823C9F090E0880F991FFC014C
:10028000E859FF4FA591B491FC01EE58FF4FC5917D
:10029000D49161110DC09FB7F8948C912095822361
:1002A0008C938881282328839FBFDF91CF91089565
:1002B000623051F49FB7F8943C91822F809583234C
:1002C0008C93E8812E2BEFCF8FB7F894EC912E2BE7
:1002D0002C938FBFEACF3FB7F8948091960190910D
:1002E0009701A0919801B091990126B5A89B05C0EE
:1002F0002F3F19F00196A11DB11D3FBFBA2FA92FA5
:10030000982F8827BC01CD01620F711D811D911DA1
:1003100042E0660F771F881F991F4A95D1F708950D
:100320008F929F92AF92BF92CF92DF92EF92FF9205
:100330004B015C010E946B016B017C010E946B010F
:100340006C197D098E099F09683E734081059105EE
:10035000A8F321E0821A9108A108B10888EEC80E1E
:1003600083E0D81EE11CF11C81149104A104B104A6
:1003700029F7FF90EF90DF90CF90BF90AF909F90C4
:100380008F9008952FB7F894609192017091930126
:1003900080919401909195012FBF08950F931F9321
:1003A000CF93DF93C82FD62F86E0C89FF00111248A
:1003B000E75CFD4F11A2878D90A181309105F1F08E
:1003C00058F082309105F1F1039709F440C0DF91B4
:1003D000CF911F910F9108956623C9F361E070E0FA
:1003E0008C2F0E948C000E94C20160939102709336
:1003F00092028093930290939402E9CF0E94C201EB
:1004000000919102109192022091930230919402F6
:10041000AB01BC01401B510B620B730B8091A3021B
:100420009091A402B0E0A0E084179507A607B70753
:1004300048F462E070E08C2FDF91CF911F910F9113
:100440000C948C0063E070E0D111C1CFF4CF70E068
:1004500060E0F1CF862F642F0C942F01862F642F3C
:100460000C940101862F0C94D800AF92BF92CF92CA
:10047000DF92EF92FF920F931F93CF93DF936C0164
:100480007B018B01040F151FEB015E01AE18BF0845
:10049000C017D10759F06991D601ED91FC910190F7
:1004A000F081E02DC6010995892B79F7C501DF910F
:1004B000CF911F910F91FF90EF90DF90CF90BF9061
:1004C000AF900895FC01538D448D252F30E0842F8B
:1004D00090E0821B930B541710F0CF96089501976C
:1004E0000895FC01918D828D981761F0A28DAE0F59
:1004F000BF2FB11D5D968C91928D9F5F9F73928FE0
:1005000090E008958FEF9FEF0895FC01918D828D0B
:10051000981731F0828DE80FF11D858D90E00895D8
:100520008FEF9FEF0895FC01918D228D892F90E030
:10053000805C9F4F821B91098F73992708958AE9E8
:1005400091E00E94930221E0892B09F420E0822FA0
:10055000089580E090E0892B29F00E949F0281118C
:100560000C9400000895FC01A48DA80FB92FB11DB3
:10057000A35ABF4F2C91848D90E001968F739927D9
:10058000848FA689B7892C93A089B1898C918370B7
:1005900080648C93938D848D981306C00288F389B0
:1005A000E02D80818F7D80830895EF92FF920F93DD
:1005B0001F93CF93DF93EC0181E0888F9B8D8C8D0F
:1005C00098131AC0E889F989808185FF15C09FB703
:1005D000F894EE89FF896083E889F98980818370C6
:1005E000806480839FBF81E090E0DF91CF911F9175
:1005F0000F91FF90EF900895F62E0B8D10E00F5F96
:100600001F4F0F731127E02E8C8D8E110CC00FB66B
:1006100007FCFACFE889F989808185FFF5CFCE0103
:100620000E94B302F1CFEB8DEC0FFD2FF11DE35AC9
:10063000FF4FF0829FB7F8940B8FEA89FB89808186
:100640008062CFCFCF93DF93EC01888D8823B9F000
:10065000AA89BB89E889F9898C9185FD03C08081CD
:1006600086FD0DC00FB607FCF7CF8C9185FFF2CF4A
:10067000808185FFEDCFCE010E94B302E9CFDF91EB
:10068000CF910895FC0101900020E9F73197AF0167
:10069000481B590BBC018AE991E00C9435021F926A
:1006A0000F920FB60F9211242F933F938F939F9326
:1006B000AF93BF938091920190919301A091940187
:1006C000B09195013091910123E0230F2D3758F51A
:1006D0000196A11DB11D20939101809392019093E9
:1006E0009301A0939401B09395018091960190910C
:1006F0009701A0919801B09199010196A11DB11D9A
:100700008093960190939701A0939801B0939901DB
:10071000BF91AF919F918F913F912F910F900FBEFD
:100720000F901F90189526E8230F0296A11DB11D6A
:10073000D2CF1F920F920FB60F9211242F933F9397
:100740004F935F936F937F938F939F93AF93BF93D9
:10075000EF93FF938AE991E00E94B302FF91EF913A
:10076000BF91AF919F918F917F916F915F914F91C9
:100770003F912F910F900FBE0F901F9018951F92D1
:100780000F920FB60F9211242F938F939F93EF9395
:10079000FF93E091AA01F091AB018081E091B0015B
:1007A000F091B10182FD1BC090818091B3018F5FF8
:1007B0008F732091B401821741F0E091B301F0E012
:1007C000E656FE4F958F8093B301FF91EF919F9175
:1007D0008F912F910F900FBE0F901F9018958081D1
:1007E000F4CF10929D0110929C0188EE93E0A0E05E
:1007F000B0E080939E0190939F01A093A001B093DD
:10080000A1018BE191E090939B0180939A0185EC8B
:1008100090E09093A7018093A60184EC90E09093E0
:10082000A9018093A80180EC90E09093AB018093A4
:10083000AA0181EC90E09093AD018093AC0182EC31
:1008400090E09093AF018093AE0186EC90E090939E
:10085000B1018093B0011092B3011092B4011092D3
:10086000B5011092B60110923B0210923F02109215
:100870003E02109240028DE291E090933A02809302
:100880003902E5E5F2E01082148213821582369671
:1008900082E0E139F807B9F783E091E090939C0298
:1008A00080939B0280E091E090939E0280939D0252
:1008B00084E080939F0283E08093A00287E091E030
:1008C00090939A02809399028AE090E09093A2021A
:1008D0008093A10284EF91E09093A4028093A302FD
:1008E0001092A7021092A602109295021092960200
:1008F00010929702109298021092A5020E94C201D3
:1009000070933802609337020895789484B58260BA
:1009100084BD84B5816084BD85B5826085BD85B5A3
:10092000816085BD80916E00816080936E00109221
:10093000810080918100826080938100809181009C
:10094000816080938100809180008160809380002D
:100950008091B10084608093B1008091B00081608B
:100960008093B00080917A00846080937A008091B7
:100970007A00826080937A0080917A00816080930F
:100980007A0080917A00806880937A001092C1008A
:10099000E091AA01F091AB0182E08083E091A60191
:1009A000F091A7011082E091A801F091A9018FECCC
:1009B00080831092B201E091AE01F091AF0186E028
:1009C0008083E091AC01F091AD01808180618083F2
:1009D000E091AC01F091AD01808188608083E0916D
:1009E000AC01F091AD01808180688083E091AC0121
:1009F000F091AD0180818F7D808361E08DE00E9468
:100A00002F0161E08CE00E942F0161E08AE00E94EA
:100A10002F0160E08DE00E94010160E08CE00E9407
:100A2000010181E090E09093A2028093A102812CC9
:100A3000912C5401839422242A94322C50E0652E68
:100A400050E0752E51E05093A5020E94C201009122
:100A50009502109196022091970230919802AB0175
:100A6000BC01401B510B620B730B8091A102909152
:100A7000A202B0E0A0E084179507A607B70708F028
:100A800041C1C0E080919F02C81760F4E0919B02D1
:100A9000F0919C02EC0FF11D62E080810E942F0119
:100AA000CF5FF0CF512C8091A002581608F05FC0A4
:100AB000052D10E0E0919D02F0919E02E00FF11FE4
:100AC00061E080810E942F01E0919D02F0919E02E1
:100AD000E00FF11F60E080810E940101D501C40197
:100AE000052C04C0880F991FAA1FBB1F0A94D2F7B8
:100AF0006C017C01E094F094412C80919F02481697
:100B0000F8F4C42DD0E0E0919B02F0919C02EC0F30
:100B1000FD1F80810E94D8002496CC0FDD1FC75C8A
:100B2000DD4F892B41F4888199818C299D299983F6
:100B300088834394E2CF888199818E219F21F7CFCA
:100B4000E0919D02F0919E02E00FF11F61E0808133
:100B50000E94010180919D0290919E02080F191F31
:100B600060E0F80180810E942F0153949CCF09E33B
:100B700012E0E8018F8D98A1892B21F41C8E3E8E06
:100B80002D8E19A22696F2E0C537DF0799F7F12CD2
:100B900080919F02F81608F053C0E12CCF2CD12C85
:100BA000CC0CDD1CC6018F5B9D4F6C012091A00217
:100BB000E21608F043C0F601608171810E2C02C07C
:100BC000769567950A94E2F7F29E900111242E0D16
:100BD000311DE9E3F2E080E0458D568D241735079D
:100BE00009F420C18F5F36968A30B1F760FF24C0C8
:100BF000E9E3F2E090E080E0448D411118C0E0911B
:100C00009902F0919A02E20FF31F408156E0589F3B
:100C1000F001599FF00D1124E75CFD4F448F368F92
:100C2000258F10A2178E61E00E94CE0105C00196AB
:100C300036968A30910501F7E394B8CFF394A8CFA4
:100C4000F12CF80181A18111F82E0A5F1F4FC01706
:100C5000D107B9F70E94C201609395027093960282
:100C60008093970290939802FF2009F44BC08091E3
:100C70005A02882309F446C0809158029091590283
:100C8000019709F03FC0C0915502C1113EC00E94BA
:100C9000C2012091370230913802621B730B683811
:100CA0007341B0F080919001882391F00E94C201BD
:100CB0007093380260933702109290018AE591E0B8
:100CC0000E9442036AE070E080E090E00E949001A0
:100CD00080919001843151F461E08CE00E94010127
:100CE00085E691E00E944203109290016114710424
:100CF00009F4A8CE0E949F02882309F4A3CE0E9483
:100D00000000A0CE1092A502C2CF6C2F8AE991E01C
:100D10000E94D50283E391E00E9442030E94C20137
:100D20007093380260933702C332E9F0CA3209F493
:100D300043C080919001E82FF0E0E458FE4FC0538B
:100D4000C0838F5F809390010E94C201709338022C
:100D50006093370260E08CE00E94010160E08DE06A
:100D60000E94010194CFCCE7D1E003E111E0999119
:100D7000F80181918F0198131AC064E670E080E059
:100D800090E00E949001F1E0C038DF0781F7809188
:100D900090018150843058F461E08DE00E9401019F
:100DA00086E391E00E9442031092900170CF61E0CF
:100DB0008CE00E940101F8CF8DE491E00E94420393
:100DC00083E391E00E94420360E08DE00E94010114
:100DD00060E08CE00E94010168EC70E080E090E04F
:100DE0000E94900161E08CE00E94010168EC70E0DB
:100DF00080E090E00E94900160E08CE00E940101A0
:100E000068EC70E080E090E00E94900161E08CE08E
:100E10000E94010168EC70E080E090E00E94900187
:100E200060E0C6CF617000CFEE0FFF1F0590F49118
:080E3000E02D0994F894FFCFB6
:100E380005040309080706313233343536373839A3
:100E48002A30230805080000000000D50235026298
:100E5800022203930271028502000000002A022E7A
:100E68000232020D0A0057656C6C20646F6E652CA7
:100E780020796F75206775657373210A0072657331
:100E8800657420627574746F6E0054696D65204FC7
:100E98007574210A00546F6F206D7563682063684C
:0C0EA8006172616374657273210A0000BE
:00000001FF
